{
  "contractName": "DXTokenRegistry",
  "abi": [
    {
      "anonymous": false,
      "inputs": [
        {
          "indexed": false,
          "internalType": "uint256",
          "name": "listId",
          "type": "uint256"
        },
        {
          "indexed": false,
          "internalType": "string",
          "name": "listName",
          "type": "string"
        }
      ],
      "name": "AddList",
      "type": "event"
    },
    {
      "anonymous": false,
      "inputs": [
        {
          "indexed": false,
          "internalType": "uint256",
          "name": "listId",
          "type": "uint256"
        },
        {
          "indexed": false,
          "internalType": "address",
          "name": "token",
          "type": "address"
        }
      ],
      "name": "AddToken",
      "type": "event"
    },
    {
      "anonymous": false,
      "inputs": [
        {
          "indexed": true,
          "internalType": "address",
          "name": "previousOwner",
          "type": "address"
        },
        {
          "indexed": true,
          "internalType": "address",
          "name": "newOwner",
          "type": "address"
        }
      ],
      "name": "OwnershipTransferred",
      "type": "event"
    },
    {
      "anonymous": false,
      "inputs": [
        {
          "indexed": false,
          "internalType": "uint256",
          "name": "listId",
          "type": "uint256"
        },
        {
          "indexed": false,
          "internalType": "address",
          "name": "token",
          "type": "address"
        }
      ],
      "name": "RemoveToken",
      "type": "event"
    },
    {
      "inputs": [],
      "name": "listCount",
      "outputs": [
        {
          "internalType": "uint256",
          "name": "",
          "type": "uint256"
        }
      ],
      "stateMutability": "view",
      "type": "function",
      "constant": true
    },
    {
      "inputs": [],
      "name": "owner",
      "outputs": [
        {
          "internalType": "address",
          "name": "",
          "type": "address"
        }
      ],
      "stateMutability": "view",
      "type": "function",
      "constant": true
    },
    {
      "inputs": [],
      "name": "renounceOwnership",
      "outputs": [],
      "stateMutability": "nonpayable",
      "type": "function"
    },
    {
      "inputs": [
        {
          "internalType": "uint256",
          "name": "",
          "type": "uint256"
        }
      ],
      "name": "tcrs",
      "outputs": [
        {
          "internalType": "uint256",
          "name": "listId",
          "type": "uint256"
        },
        {
          "internalType": "string",
          "name": "listName",
          "type": "string"
        },
        {
          "internalType": "uint256",
          "name": "activeTokenCount",
          "type": "uint256"
        }
      ],
      "stateMutability": "view",
      "type": "function",
      "constant": true
    },
    {
      "inputs": [
        {
          "internalType": "address",
          "name": "newOwner",
          "type": "address"
        }
      ],
      "name": "transferOwnership",
      "outputs": [],
      "stateMutability": "nonpayable",
      "type": "function"
    },
    {
      "inputs": [
        {
          "internalType": "string",
          "name": "_listName",
          "type": "string"
        }
      ],
      "name": "addList",
      "outputs": [
        {
          "internalType": "uint256",
          "name": "",
          "type": "uint256"
        }
      ],
      "stateMutability": "nonpayable",
      "type": "function"
    },
    {
      "inputs": [
        {
          "internalType": "uint256",
          "name": "_listId",
          "type": "uint256"
        },
        {
          "internalType": "address[]",
          "name": "_tokens",
          "type": "address[]"
        }
      ],
      "name": "addTokens",
      "outputs": [],
      "stateMutability": "nonpayable",
      "type": "function"
    },
    {
      "inputs": [
        {
          "internalType": "uint256",
          "name": "_listId",
          "type": "uint256"
        },
        {
          "internalType": "address[]",
          "name": "_tokens",
          "type": "address[]"
        }
      ],
      "name": "removeTokens",
      "outputs": [],
      "stateMutability": "nonpayable",
      "type": "function"
    },
    {
      "inputs": [
        {
          "internalType": "uint256",
          "name": "_listId",
          "type": "uint256"
        }
      ],
      "name": "getTokens",
      "outputs": [
        {
          "internalType": "address[]",
          "name": "",
          "type": "address[]"
        }
      ],
      "stateMutability": "view",
      "type": "function",
      "constant": true
    },
    {
      "inputs": [
        {
          "internalType": "uint256",
          "name": "_listId",
          "type": "uint256"
        },
        {
          "internalType": "uint256",
          "name": "_start",
          "type": "uint256"
        },
        {
          "internalType": "uint256",
          "name": "_end",
          "type": "uint256"
        }
      ],
      "name": "getTokensRange",
      "outputs": [
        {
          "internalType": "address[]",
          "name": "tokensRange",
          "type": "address[]"
        }
      ],
      "stateMutability": "view",
      "type": "function",
      "constant": true
    },
    {
      "inputs": [
        {
          "internalType": "uint256",
          "name": "_listId",
          "type": "uint256"
        },
        {
          "internalType": "address",
          "name": "_token",
          "type": "address"
        }
      ],
      "name": "isTokenActive",
      "outputs": [
        {
          "internalType": "bool",
          "name": "",
          "type": "bool"
        }
      ],
      "stateMutability": "view",
      "type": "function",
      "constant": true
    },
    {
      "inputs": [
        {
          "internalType": "address[]",
          "name": "_tokens",
          "type": "address[]"
        }
      ],
      "name": "getTokensData",
      "outputs": [
        {
          "internalType": "string[]",
          "name": "names",
          "type": "string[]"
        },
        {
          "internalType": "string[]",
          "name": "symbols",
          "type": "string[]"
        },
        {
          "internalType": "uint256[]",
          "name": "decimals",
          "type": "uint256[]"
        }
      ],
      "stateMutability": "view",
      "type": "function",
      "constant": true
    },
    {
      "inputs": [
        {
          "internalType": "address",
          "name": "_trader",
          "type": "address"
        },
        {
          "internalType": "address[]",
          "name": "_assetAddresses",
          "type": "address[]"
        }
      ],
      "name": "getExternalBalances",
      "outputs": [
        {
          "internalType": "uint256[]",
          "name": "",
          "type": "uint256[]"
        }
      ],
      "stateMutability": "view",
      "type": "function",
      "constant": true
    }
  ],
  "bytecode": "0x608060405260006100146100b760201b60201c565b9050806000806101000a81548173ffffffffffffffffffffffffffffffffffffffff021916908373ffffffffffffffffffffffffffffffffffffffff1602179055508073ffffffffffffffffffffffffffffffffffffffff16600073ffffffffffffffffffffffffffffffffffffffff167f8be0079c531659141344cd1fd0a4f28419497f9722a3daafe3b4186f6b6457e060405160405180910390a3506100bf565b600033905090565b61275b806100ce6000396000f3fe608060405234801561001057600080fd5b50600436106100cf5760003560e01c80638da5cb5b1161008c578063dc4d317111610066578063dc4d317114610228578063dd88adde14610244578063f2fde38b14610274578063f7bb841514610290576100cf565b80638da5cb5b146101aa578063c3714723146101c8578063d3c9cc26146101f8576100cf565b806302209d96146100d457806306498e60146101045780631b68d10d146101345780636b5b8808146101525780636c92d0d11461016e578063715018a6146101a0575b600080fd5b6100ee60048036036100e99190810190611c03565b6102c2565b6040516100fb9190612422565b60405180910390f35b61011e60048036036101199190810190611d67565b61041b565b60405161012b9190612297565b60405180910390f35b61013c6106ee565b6040516101499190612422565b60405180910390f35b61016c60048036036101679190810190611d13565b6106f4565b005b61018860048036036101839190810190611bc2565b610a5d565b604051610197939291906122b9565b60405180910390f35b6101a8610d59565b005b6101b2610eae565b6040516101bf919061227c565b60405180910390f35b6101e260048036036101dd9190810190611b6e565b610ed7565b6040516101ef9190612305565b60405180910390f35b610212600480360361020d9190810190611c85565b610fe8565b60405161021f9190612297565b60405180910390f35b610242600480360361023d9190810190611d13565b6110d1565b005b61025e60048036036102599190810190611cd7565b6114f7565b60405161026b9190612327565b60405180910390f35b61028e60048036036102899190810190611b45565b6115cd565b005b6102aa60048036036102a59190810190611c85565b611791565b6040516102b993929190612496565b60405180910390f35b60006102cc611853565b73ffffffffffffffffffffffffffffffffffffffff166000809054906101000a900473ffffffffffffffffffffffffffffffffffffffff1673ffffffffffffffffffffffffffffffffffffffff161461035a576040517f08c379a0000000000000000000000000000000000000000000000000000000008152600401610351906123a2565b60405180910390fd5b600260008154809291906001019190505550600254600160006002548152602001908152602001600020600001819055508160016000600254815260200190815260200160002060010190805190602001906103b7929190611921565b506000600160006002548152602001908152602001600020600401819055507fa35fec3c33a3546583876608bc467b00398be7ad08a751bff377f3636e1d45b860025483604051610409929190612466565b60405180910390a16002549050919050565b6060600254841115610462576040517f08c379a000000000000000000000000000000000000000000000000000000000815260040161045990612402565b60405180910390fd5b600160008581526020019081526020016000206002018054905083111580156104a35750600160008581526020019081526020016000206002018054905082105b6104e2576040517f08c379a00000000000000000000000000000000000000000000000000000000081526004016104d990612382565b60405180910390fd5b81831115610525576040517f08c379a000000000000000000000000000000000000000000000000000000000815260040161051c90612362565b60405180910390fd5b6001838303016040519080825280602002602001820160405280156105595781602001602082028038833980820191505090505b509050600080905060008490505b8381116106e55760018081111561057a57fe5b600160008881526020019081526020016000206003016000600160008a815260200190815260200160002060020184815481106105b357fe5b9060005260206000200160009054906101000a900473ffffffffffffffffffffffffffffffffffffffff1673ffffffffffffffffffffffffffffffffffffffff1673ffffffffffffffffffffffffffffffffffffffff16815260200190815260200160002060009054906101000a900460ff16600181111561063157fe5b14156106d85760016000878152602001908152602001600020600201818154811061065857fe5b9060005260206000200160009054906101000a900473ffffffffffffffffffffffffffffffffffffffff16838363ffffffff168151811061069557fe5b602002602001019073ffffffffffffffffffffffffffffffffffffffff16908173ffffffffffffffffffffffffffffffffffffffff168152505081806001019250505b8080600101915050610567565b50509392505050565b60025481565b6106fc611853565b73ffffffffffffffffffffffffffffffffffffffff166000809054906101000a900473ffffffffffffffffffffffffffffffffffffffff1673ffffffffffffffffffffffffffffffffffffffff161461078a576040517f08c379a0000000000000000000000000000000000000000000000000000000008152600401610781906123a2565b60405180910390fd5b6002548211156107cf576040517f08c379a00000000000000000000000000000000000000000000000000000000081526004016107c690612402565b60405180910390fd5b60008090505b81518163ffffffff161015610a58576001808111156107f057fe5b600160008581526020019081526020016000206003016000848463ffffffff168151811061081a57fe5b602002602001015173ffffffffffffffffffffffffffffffffffffffff1673ffffffffffffffffffffffffffffffffffffffff16815260200190815260200160002060009054906101000a900460ff16600181111561087557fe5b14156108b6576040517f08c379a00000000000000000000000000000000000000000000000000000000081526004016108ad906123c2565b60405180910390fd5b60016000848152602001908152602001600020600201828263ffffffff16815181106108de57fe5b60200260200101519080600181540180825580915050600190039060005260206000200160009091909190916101000a81548173ffffffffffffffffffffffffffffffffffffffff021916908373ffffffffffffffffffffffffffffffffffffffff16021790555060018060008581526020019081526020016000206003016000848463ffffffff168151811061097157fe5b602002602001015173ffffffffffffffffffffffffffffffffffffffff1673ffffffffffffffffffffffffffffffffffffffff16815260200190815260200160002060006101000a81548160ff021916908360018111156109ce57fe5b021790555060016000848152602001908152602001600020600401600081548092919060010191905055507f374195d639167721eee596157426d922ffedad376d1ec774751088e8de1dcd0d83838363ffffffff1681518110610a2d57fe5b6020026020010151604051610a4392919061243d565b60405180910390a180806001019150506107d5565b505050565b60608060608351604051908082528060200260200182016040528015610a9757816020015b6060815260200190600190039081610a825790505b5092508351604051908082528060200260200182016040528015610acf57816020015b6060815260200190600190039081610aba5790505b5091508351604051908082528060200260200182016040528015610b025781602001602082028038833980820191505090505b50905060008090505b84518163ffffffff161015610d5157848163ffffffff1681518110610b2c57fe5b602002602001015173ffffffffffffffffffffffffffffffffffffffff166306fdde036040518163ffffffff1660e01b815260040160006040518083038186803b158015610b7957600080fd5b505afa158015610b8d573d6000803e3d6000fd5b505050506040513d6000823e3d601f19601f82011682018060405250610bb69190810190611c44565b848263ffffffff1681518110610bc857fe5b6020026020010181905250848163ffffffff1681518110610be557fe5b602002602001015173ffffffffffffffffffffffffffffffffffffffff166395d89b416040518163ffffffff1660e01b815260040160006040518083038186803b158015610c3257600080fd5b505afa158015610c46573d6000803e3d6000fd5b505050506040513d6000823e3d601f19601f82011682018060405250610c6f9190810190611c44565b838263ffffffff1681518110610c8157fe5b6020026020010181905250848163ffffffff1681518110610c9e57fe5b602002602001015173ffffffffffffffffffffffffffffffffffffffff1663313ce5676040518163ffffffff1660e01b815260040160206040518083038186803b158015610ceb57600080fd5b505afa158015610cff573d6000803e3d6000fd5b505050506040513d601f19601f82011682018060405250610d239190810190611db6565b60ff16828263ffffffff1681518110610d3857fe5b6020026020010181815250508080600101915050610b0b565b509193909250565b610d61611853565b73ffffffffffffffffffffffffffffffffffffffff166000809054906101000a900473ffffffffffffffffffffffffffffffffffffffff1673ffffffffffffffffffffffffffffffffffffffff1614610def576040517f08c379a0000000000000000000000000000000000000000000000000000000008152600401610de6906123a2565b60405180910390fd5b600073ffffffffffffffffffffffffffffffffffffffff166000809054906101000a900473ffffffffffffffffffffffffffffffffffffffff1673ffffffffffffffffffffffffffffffffffffffff167f8be0079c531659141344cd1fd0a4f28419497f9722a3daafe3b4186f6b6457e060405160405180910390a360008060006101000a81548173ffffffffffffffffffffffffffffffffffffffff021916908373ffffffffffffffffffffffffffffffffffffffff160217905550565b60008060009054906101000a900473ffffffffffffffffffffffffffffffffffffffff16905090565b6060808251604051908082528060200260200182016040528015610f0a5781602001602082028038833980820191505090505b50905060008090505b8351811015610fdd57838181518110610f2857fe5b602002602001015173ffffffffffffffffffffffffffffffffffffffff166370a08231866040518263ffffffff1660e01b8152600401610f68919061227c565b60206040518083038186803b158015610f8057600080fd5b505afa158015610f94573d6000803e3d6000fd5b505050506040513d601f19601f82011682018060405250610fb89190810190611cae565b828281518110610fc457fe5b6020026020010181815250508080600101915050610f13565b508091505092915050565b606060025482111561102f576040517f08c379a000000000000000000000000000000000000000000000000000000000815260040161102690612402565b60405180910390fd5b600160008381526020019081526020016000206002018054806020026020016040519081016040528092919081815260200182805480156110c557602002820191906000526020600020905b8160009054906101000a900473ffffffffffffffffffffffffffffffffffffffff1673ffffffffffffffffffffffffffffffffffffffff168152602001906001019080831161107b575b50505050509050919050565b6110d9611853565b73ffffffffffffffffffffffffffffffffffffffff166000809054906101000a900473ffffffffffffffffffffffffffffffffffffffff1673ffffffffffffffffffffffffffffffffffffffff1614611167576040517f08c379a000000000000000000000000000000000000000000000000000000000815260040161115e906123a2565b60405180910390fd5b6002548211156111ac576040517f08c379a00000000000000000000000000000000000000000000000000000000081526004016111a390612402565b60405180910390fd5b60008090505b81518163ffffffff1610156114f2576001808111156111cd57fe5b600160008581526020019081526020016000206003016000848463ffffffff16815181106111f757fe5b602002602001015173ffffffffffffffffffffffffffffffffffffffff1673ffffffffffffffffffffffffffffffffffffffff16815260200190815260200160002060009054906101000a900460ff16600181111561125257fe5b14611292576040517f08c379a0000000000000000000000000000000000000000000000000000000008152600401611289906123e2565b60405180910390fd5b6000600160008581526020019081526020016000206003016000848463ffffffff16815181106112be57fe5b602002602001015173ffffffffffffffffffffffffffffffffffffffff1673ffffffffffffffffffffffffffffffffffffffff16815260200190815260200160002060006101000a81548160ff0219169083600181111561131b57fe5b0217905550600061134584848463ffffffff168151811061133857fe5b602002602001015161185b565b905060016000858152602001908152602001600020600201600180600087815260200190815260200160002060020180549050038154811061138357fe5b9060005260206000200160009054906101000a900473ffffffffffffffffffffffffffffffffffffffff166001600086815260200190815260200160002060020182815481106113cf57fe5b9060005260206000200160006101000a81548173ffffffffffffffffffffffffffffffffffffffff021916908373ffffffffffffffffffffffffffffffffffffffff1602179055506001600085815260200190815260200160002060020180548061143657fe5b6001900381819060005260206000200160006101000a81549073ffffffffffffffffffffffffffffffffffffffff021916905590556001600085815260200190815260200160002060040160008154809291906001900391905055507fcadf6fd3968e653eef0f298763a80925d054059a599c46fadf9d319d9653bd8684848463ffffffff16815181106114c657fe5b60200260200101516040516114dc92919061243d565b60405180910390a15080806001019150506111b2565b505050565b600060025483111561153e576040517f08c379a000000000000000000000000000000000000000000000000000000000815260040161153590612402565b60405180910390fd5b60018081111561154a57fe5b6001600085815260200190815260200160002060030160008473ffffffffffffffffffffffffffffffffffffffff1673ffffffffffffffffffffffffffffffffffffffff16815260200190815260200160002060009054906101000a900460ff1660018111156115b657fe5b146115c25760006115c5565b60015b905092915050565b6115d5611853565b73ffffffffffffffffffffffffffffffffffffffff166000809054906101000a900473ffffffffffffffffffffffffffffffffffffffff1673ffffffffffffffffffffffffffffffffffffffff1614611663576040517f08c379a000000000000000000000000000000000000000000000000000000000815260040161165a906123a2565b60405180910390fd5b600073ffffffffffffffffffffffffffffffffffffffff168173ffffffffffffffffffffffffffffffffffffffff1614156116d3576040517f08c379a00000000000000000000000000000000000000000000000000000000081526004016116ca90612342565b60405180910390fd5b8073ffffffffffffffffffffffffffffffffffffffff166000809054906101000a900473ffffffffffffffffffffffffffffffffffffffff1673ffffffffffffffffffffffffffffffffffffffff167f8be0079c531659141344cd1fd0a4f28419497f9722a3daafe3b4186f6b6457e060405160405180910390a3806000806101000a81548173ffffffffffffffffffffffffffffffffffffffff021916908373ffffffffffffffffffffffffffffffffffffffff16021790555050565b6001602052806000526040600020600091509050806000015490806001018054600181600116156101000203166002900480601f0160208091040260200160405190810160405280929190818152602001828054600181600116156101000203166002900480156118435780601f1061181857610100808354040283529160200191611843565b820191906000526020600020905b81548152906001019060200180831161182657829003601f168201915b5050505050908060040154905083565b600033905090565b600080600090505b6001600085815260200190815260200160002060020180549050811015611919578273ffffffffffffffffffffffffffffffffffffffff166001600086815260200190815260200160002060020182815481106118bc57fe5b9060005260206000200160009054906101000a900473ffffffffffffffffffffffffffffffffffffffff1673ffffffffffffffffffffffffffffffffffffffff16141561190c578091505061191b565b8080600101915050611863565b505b92915050565b828054600181600116156101000203166002900490600052602060002090601f016020900481019282601f1061196257805160ff1916838001178555611990565b82800160010185558215611990579182015b8281111561198f578251825591602001919060010190611974565b5b50905061199d91906119a1565b5090565b6119c391905b808211156119bf5760008160009055506001016119a7565b5090565b90565b6000813590506119d5816126e0565b92915050565b600082601f8301126119ec57600080fd5b81356119ff6119fa82612501565b6124d4565b91508181835260208401935060208101905083856020840282011115611a2457600080fd5b60005b83811015611a545781611a3a88826119c6565b845260208401935060208301925050600181019050611a27565b5050505092915050565b600082601f830112611a6f57600080fd5b8135611a82611a7d82612529565b6124d4565b91508082526020830160208301858383011115611a9e57600080fd5b611aa983828461268d565b50505092915050565b600082601f830112611ac357600080fd5b8151611ad6611ad182612529565b6124d4565b91508082526020830160208301858383011115611af257600080fd5b611afd83828461269c565b50505092915050565b600081359050611b15816126f7565b92915050565b600081519050611b2a816126f7565b92915050565b600081519050611b3f8161270e565b92915050565b600060208284031215611b5757600080fd5b6000611b65848285016119c6565b91505092915050565b60008060408385031215611b8157600080fd5b6000611b8f858286016119c6565b925050602083013567ffffffffffffffff811115611bac57600080fd5b611bb8858286016119db565b9150509250929050565b600060208284031215611bd457600080fd5b600082013567ffffffffffffffff811115611bee57600080fd5b611bfa848285016119db565b91505092915050565b600060208284031215611c1557600080fd5b600082013567ffffffffffffffff811115611c2f57600080fd5b611c3b84828501611a5e565b91505092915050565b600060208284031215611c5657600080fd5b600082015167ffffffffffffffff811115611c7057600080fd5b611c7c84828501611ab2565b91505092915050565b600060208284031215611c9757600080fd5b6000611ca584828501611b06565b91505092915050565b600060208284031215611cc057600080fd5b6000611cce84828501611b1b565b91505092915050565b60008060408385031215611cea57600080fd5b6000611cf885828601611b06565b9250506020611d09858286016119c6565b9150509250929050565b60008060408385031215611d2657600080fd5b6000611d3485828601611b06565b925050602083013567ffffffffffffffff811115611d5157600080fd5b611d5d858286016119db565b9150509250929050565b600080600060608486031215611d7c57600080fd5b6000611d8a86828701611b06565b9350506020611d9b86828701611b06565b9250506040611dac86828701611b06565b9150509250925092565b600060208284031215611dc857600080fd5b6000611dd684828501611b30565b91505092915050565b6000611deb8383611e23565b60208301905092915050565b6000611e038383611fba565b905092915050565b6000611e17838361225e565b60208301905092915050565b611e2c81612638565b82525050565b611e3b81612638565b82525050565b6000611e4c82612585565b611e5681856125e3565b9350611e6183612555565b8060005b83811015611e92578151611e798882611ddf565b9750611e84836125bc565b925050600181019050611e65565b5085935050505092915050565b6000611eaa82612590565b611eb481856125f4565b935083602082028501611ec685612565565b8060005b85811015611f025784840389528151611ee38582611df7565b9450611eee836125c9565b925060208a01995050600181019050611eca565b50829750879550505050505092915050565b6000611f1f8261259b565b611f298185612605565b9350611f3483612575565b8060005b83811015611f65578151611f4c8882611e0b565b9750611f57836125d6565b925050600181019050611f38565b5085935050505092915050565b611f7b8161264a565b82525050565b6000611f8c826125b1565b611f968185612627565b9350611fa681856020860161269c565b611faf816126cf565b840191505092915050565b6000611fc5826125a6565b611fcf8185612616565b9350611fdf81856020860161269c565b611fe8816126cf565b840191505092915050565b6000611ffe826125a6565b6120088185612627565b935061201881856020860161269c565b612021816126cf565b840191505092915050565b6000612039602683612627565b91507f4f776e61626c653a206e6577206f776e657220697320746865207a65726f206160008301527f64647265737300000000000000000000000000000000000000000000000000006020830152604082019050919050565b600061209f602883612627565b91507f4458546f6b656e5265676973747279203a20494e56414c49445f494e5645525460008301527f45445f52414e47450000000000000000000000000000000000000000000000006020830152604082019050919050565b6000612105601f83612627565b91507f4458546f6b656e5265676973747279203a20494e56414c49445f52414e4745006000830152602082019050919050565b6000612145602083612627565b91507f4f776e61626c653a2063616c6c6572206973206e6f7420746865206f776e65726000830152602082019050919050565b6000612185602183612627565b91507f4458546f6b656e5265676973747279203a204455504c49434154455f544f4b4560008301527f4e000000000000000000000000000000000000000000000000000000000000006020830152604082019050919050565b60006121eb602083612627565b91507f4458546f6b656e5265676973747279203a20494e4143544956455f544f4b454e6000830152602082019050919050565b600061222b601e83612627565b91507f4458546f6b656e5265676973747279203a20494e56414c49445f4c49535400006000830152602082019050919050565b61226781612676565b82525050565b61227681612676565b82525050565b60006020820190506122916000830184611e32565b92915050565b600060208201905081810360008301526122b18184611e41565b905092915050565b600060608201905081810360008301526122d38186611e9f565b905081810360208301526122e78185611e9f565b905081810360408301526122fb8184611f14565b9050949350505050565b6000602082019050818103600083015261231f8184611f14565b905092915050565b600060208201905061233c6000830184611f72565b92915050565b6000602082019050818103600083015261235b8161202c565b9050919050565b6000602082019050818103600083015261237b81612092565b9050919050565b6000602082019050818103600083015261239b816120f8565b9050919050565b600060208201905081810360008301526123bb81612138565b9050919050565b600060208201905081810360008301526123db81612178565b9050919050565b600060208201905081810360008301526123fb816121de565b9050919050565b6000602082019050818103600083015261241b8161221e565b9050919050565b6000602082019050612437600083018461226d565b92915050565b6000604082019050612452600083018561226d565b61245f6020830184611e32565b9392505050565b600060408201905061247b600083018561226d565b818103602083015261248d8184611f81565b90509392505050565b60006060820190506124ab600083018661226d565b81810360208301526124bd8185611ff3565b90506124cc604083018461226d565b949350505050565b6000604051905081810181811067ffffffffffffffff821117156124f757600080fd5b8060405250919050565b600067ffffffffffffffff82111561251857600080fd5b602082029050602081019050919050565b600067ffffffffffffffff82111561254057600080fd5b601f19601f8301169050602081019050919050565b6000819050602082019050919050565b6000819050602082019050919050565b6000819050602082019050919050565b600081519050919050565b600081519050919050565b600081519050919050565b600081519050919050565b600081519050919050565b6000602082019050919050565b6000602082019050919050565b6000602082019050919050565b600082825260208201905092915050565b600082825260208201905092915050565b600082825260208201905092915050565b600082825260208201905092915050565b600082825260208201905092915050565b600061264382612656565b9050919050565b60008115159050919050565b600073ffffffffffffffffffffffffffffffffffffffff82169050919050565b6000819050919050565b600060ff82169050919050565b82818337600083830152505050565b60005b838110156126ba57808201518184015260208101905061269f565b838111156126c9576000848401525b50505050565b6000601f19601f8301169050919050565b6126e981612638565b81146126f457600080fd5b50565b61270081612676565b811461270b57600080fd5b50565b61271781612680565b811461272257600080fd5b5056fea26469706673582212201543f7ee25feea4f5776f78aae299ab00118f5dee7dbb178db61c6ec404e2be964736f6c63430006020033",
  "source": "pragma solidity >=0.6.2;\npragma experimental ABIEncoderV2;\n\nimport '@openzeppelin/contracts/access/Ownable.sol';\nimport '@openzeppelin/contracts/token/ERC20/ERC20.sol';\n\n\n/// @title dxDAO Token Multi-Registry\n/// @notice Maintains multiple token lists, curated by the DAO\ncontract DXTokenRegistry is Ownable {\n    event AddList(uint256 listId, string listName);\n    event AddToken(uint256 listId, address token);\n    event RemoveToken(uint256 listId, address token);\n\n    enum TokenStatus {NULL, ACTIVE}\n\n    struct TCR {\n        uint256 listId;\n        string listName;\n        address[] tokens;\n        mapping(address => TokenStatus) status;\n        uint256 activeTokenCount;\n    }\n\n    mapping(uint256 => TCR) public tcrs;\n    uint256 public listCount;\n\n    /// @notice Add new token list.\n    /// @param _listName Name of new list.\n    /// @return New list ID.\n    function addList(string memory _listName) public onlyOwner returns (uint256) {\n        listCount++;\n        tcrs[listCount].listId = listCount;\n        tcrs[listCount].listName = _listName;\n        tcrs[listCount].activeTokenCount = 0;\n        emit AddList(listCount, _listName);\n        return listCount;\n    }\n\n    /// @notice The owner can add new token(s) to existing list, by address.\n    /// @dev Attempting to add token addresses which are already in the list will cause revert.\n    /// @param _listId ID of list to add new tokens.\n    /// @param _tokens Array of token addresses to add.\n    function addTokens(uint256 _listId, address[] memory _tokens) public onlyOwner {\n        require(_listId <= listCount, 'DXTokenRegistry : INVALID_LIST');\n        for (uint32 i = 0; i < _tokens.length; i++) {\n            require(\n                tcrs[_listId].status[_tokens[i]] != TokenStatus.ACTIVE,\n                'DXTokenRegistry : DUPLICATE_TOKEN'\n            );\n            tcrs[_listId].tokens.push(_tokens[i]);\n            tcrs[_listId].status[_tokens[i]] = TokenStatus.ACTIVE;\n            tcrs[_listId].activeTokenCount++;\n            emit AddToken(_listId, _tokens[i]);\n        }\n    }\n\n    /// @notice The owner can remove token(s) on existing list, by address.\n    /// @dev Attempting to remove token addresses which are not active, or not present in the list, will cause revert.\n    /// @param _listId ID of list to remove tokens from.\n    /// @param _tokens Array of token addresses to remove.\n    function removeTokens(uint256 _listId, address[] memory _tokens) public onlyOwner {\n        require(_listId <= listCount, 'DXTokenRegistry : INVALID_LIST');\n        for (uint32 i = 0; i < _tokens.length; i++) {\n            require(\n                tcrs[_listId].status[_tokens[i]] == TokenStatus.ACTIVE,\n                'DXTokenRegistry : INACTIVE_TOKEN'\n            );\n            tcrs[_listId].status[_tokens[i]] = TokenStatus.NULL;\n            uint256 tokenIndex = getTokenIndex(_listId, _tokens[i]);\n            tcrs[_listId].tokens[tokenIndex] = tcrs[_listId].tokens[tcrs[_listId].tokens.length -\n                1];\n            tcrs[_listId].tokens.pop();\n            tcrs[_listId].activeTokenCount--;\n            emit RemoveToken(_listId, _tokens[i]);\n        }\n    }\n\n    /// @notice Get all tokens tracked by a token list\n    /// @param _listId ID of list to get tokens from.\n    /// @return Array of token addresses tracked by list.\n    function getTokens(uint256 _listId) public view returns (address[] memory) {\n        require(_listId <= listCount, 'DXTokenRegistry : INVALID_LIST');\n        return tcrs[_listId].tokens;\n    }\n\n    /// @notice Get active tokens from a list, within a specified index range.\n    /// @param _listId ID of list to get tokens from.\n    /// @param _start Start index.\n    /// @param _end End index.\n    /// @return tokensRange Array of active token addresses in index range.\n    function getTokensRange(\n        uint256 _listId,\n        uint256 _start,\n        uint256 _end\n    ) public view returns (address[] memory tokensRange) {\n        require(_listId <= listCount, 'DXTokenRegistry : INVALID_LIST');\n        require(\n            _start <= tcrs[_listId].tokens.length && _end < tcrs[_listId].tokens.length,\n            'DXTokenRegistry : INVALID_RANGE'\n        );\n        require(_start <= _end, 'DXTokenRegistry : INVALID_INVERTED_RANGE');\n        tokensRange = new address[](_end - _start + 1);\n        uint32 activeCount = 0;\n        for (uint256 i = _start; i <= _end; i++) {\n            if (tcrs[_listId].status[tcrs[_listId].tokens[i]] == TokenStatus.ACTIVE) {\n                tokensRange[activeCount] = tcrs[_listId].tokens[i];\n                activeCount++;\n            }\n        }\n    }\n\n    /// @notice Check if list has a given token address active.\n    /// @param _listId ID of list to get tokens from.\n    /// @param _token Token address to check.\n    /// @return Active status of given token address in list.\n    function isTokenActive(uint256 _listId, address _token) public view returns (bool) {\n        require(_listId <= listCount, 'DXTokenRegistry : INVALID_LIST');\n        return tcrs[_listId].status[_token] == TokenStatus.ACTIVE ? true : false;\n    }\n\n    /// @notice Returns the array index of a given token address\n    /// @param _listId ID of list to get tokens from.\n    /// @param _token Token address to check.\n    /// @return index position of given token address in list.\n    function getTokenIndex(uint256 _listId, address _token) internal view returns (uint256) {\n        for (uint256 i = 0; i < tcrs[_listId].tokens.length; i++) {\n            if (tcrs[_listId].tokens[i] == _token) {\n                return i;\n            }\n        }\n    }\n\n    /// @notice Convenience method to get ERC20 metadata for given tokens.\n    /// @param _tokens Array of token addresses.\n    /// @return names for each token.\n    /// @return symbols for each token.\n    /// @return decimals for each token.\n    function getTokensData(address[] memory _tokens)\n        public\n        view\n        returns (\n            string[] memory names,\n            string[] memory symbols,\n            uint256[] memory decimals\n        )\n    {\n        names = new string[](_tokens.length);\n        symbols = new string[](_tokens.length);\n        decimals = new uint256[](_tokens.length);\n        for (uint32 i = 0; i < _tokens.length; i++) {\n            names[i] = ERC20(_tokens[i]).name();\n            symbols[i] = ERC20(_tokens[i]).symbol();\n            decimals[i] = ERC20(_tokens[i]).decimals();\n        }\n    }\n\n    /// @notice Convenience method to get account balances for given tokens.\n    /// @param _trader Account to check balances for.\n    /// @param _assetAddresses Array of token addresses.\n    /// @return Account balances for each token.\n    function getExternalBalances(address _trader, address[] memory _assetAddresses)\n        public\n        view\n        returns (uint256[] memory)\n    {\n        uint256[] memory balances = new uint256[](_assetAddresses.length);\n        for (uint256 i = 0; i < _assetAddresses.length; i++) {\n            balances[i] = ERC20(_assetAddresses[i]).balanceOf(_trader);\n        }\n        return balances;\n    }\n}\n",
  "sourcePath": "/Users/Cesar/apps/dorg/dxdao/tokenRegistry/contracts/dxTokenRegistry.sol",
  "compiler": {
    "name": "solc",
    "version": "0.6.2+commit.bacdbe57.Emscripten.clang"
  },
  "schemaVersion": "3.0.23",
  "updatedAt": "2020-07-02T22:58:16.094Z",
  "networkType": "ethereum",
  "devdoc": {
    "methods": {
      "addList(string)": {
        "params": {
          "_listName": "Name of new list."
        },
        "returns": {
          "_0": "New list ID."
        }
      },
      "addTokens(uint256,address[])": {
        "details": "Attempting to add token addresses which are already in the list will cause revert.",
        "params": {
          "_listId": "ID of list to add new tokens.",
          "_tokens": "Array of token addresses to add."
        }
      },
      "getExternalBalances(address,address[])": {
        "params": {
          "_assetAddresses": "Array of token addresses.",
          "_trader": "Account to check balances for."
        },
        "returns": {
          "_0": "Account balances for each token."
        }
      },
      "getTokens(uint256)": {
        "params": {
          "_listId": "ID of list to get tokens from."
        },
        "returns": {
          "_0": "Array of token addresses tracked by list."
        }
      },
      "getTokensData(address[])": {
        "params": {
          "_tokens": "Array of token addresses."
        },
        "returns": {
          "decimals": "for each token.",
          "names": "for each token.",
          "symbols": "for each token."
        }
      },
      "getTokensRange(uint256,uint256,uint256)": {
        "params": {
          "_end": "End index.",
          "_listId": "ID of list to get tokens from.",
          "_start": "Start index."
        },
        "returns": {
          "tokensRange": "Array of active token addresses in index range."
        }
      },
      "isTokenActive(uint256,address)": {
        "params": {
          "_listId": "ID of list to get tokens from.",
          "_token": "Token address to check."
        },
        "returns": {
          "_0": "Active status of given token address in list."
        }
      },
      "owner()": {
        "details": "Returns the address of the current owner."
      },
      "removeTokens(uint256,address[])": {
        "details": "Attempting to remove token addresses which are not active, or not present in the list, will cause revert.",
        "params": {
          "_listId": "ID of list to remove tokens from.",
          "_tokens": "Array of token addresses to remove."
        }
      },
      "renounceOwnership()": {
        "details": "Leaves the contract without owner. It will not be possible to call `onlyOwner` functions anymore. Can only be called by the current owner.     * NOTE: Renouncing ownership will leave the contract without an owner, thereby removing any functionality that is only available to the owner."
      },
      "transferOwnership(address)": {
        "details": "Transfers ownership of the contract to a new account (`newOwner`). Can only be called by the current owner."
      }
    },
    "title": "dxDAO Token Multi-Registry"
  },
  "userdoc": {
    "methods": {
      "addList(string)": {
        "notice": "Add new token list."
      },
      "addTokens(uint256,address[])": {
        "notice": "The owner can add new token(s) to existing list, by address."
      },
      "getExternalBalances(address,address[])": {
        "notice": "Convenience method to get account balances for given tokens."
      },
      "getTokens(uint256)": {
        "notice": "Get all tokens tracked by a token list"
      },
      "getTokensData(address[])": {
        "notice": "Convenience method to get ERC20 metadata for given tokens."
      },
      "getTokensRange(uint256,uint256,uint256)": {
        "notice": "Get active tokens from a list, within a specified index range."
      },
      "isTokenActive(uint256,address)": {
        "notice": "Check if list has a given token address active."
      },
      "removeTokens(uint256,address[])": {
        "notice": "The owner can remove token(s) on existing list, by address."
      }
    },
    "notice": "Maintains multiple token lists, curated by the DAO"
  }
}